:1000000000800020BD01000011230000DD2200005F
:10001000DD220000DD220000DD220000DD220000E4
:10002000DD220000DD220000DD220000112300009F
:1000300011230000DD22000011230000CD2200006A
:1000400011230000112300001123000011230000E0
:1000500011230000112300001123000011230000D0
:1000600011230000112300001123000011230000C0
:1000700011230000112300001123000011230000B0
:1000800011230000112300001123000011230000A0
:100090001123000011230000112300001123000090
:1000A0004912000011230000112300001123000059
:1000B0001123000011230000112300001123000070
:1000C0001123000011230000112300001123000060
:1000D0001123000011230000112300001123000050
:1000E0001123000011230000112300001123000040
:1000F000112300007136000011230000ED3B0000C9
:10010000112300009940000011230000112300007A
:10011000112300001123000011230000112300000F
:1001200011230000112300001123000011230000FF
:1001300011230000112300001123000011230000EF
:1001400011230000112300001123000011230000DF
:1001500011230000112300001123000011230000CF
:1001600011230000FD4200001123000011230000B4
:1001700011230000112300001123000011230000AF
:10018000112300001123000011230000112300009F
:10019000112300001123000011230000112300008F
:1001A000112300001123000011230000112300007F
:1001B000112300001123000011230000564B4CF2C4
:1001C000205210B51A804DF628121A8000BF00BFC9
:1001D00002F0A2F8514B4FF010621A60504A9A6038
:1001E000504ADA60A3F53043203B1A6812F480725B
:1001F00004D14D490A604FF4A8521A604B4B1A784B
:10020000110703D51A7842F008021A70484B2A22C7
:100210001A700023474A48499818884204D247492F
:10022000595899500433F5E7454A464B9A424FF0E6
:10023000000302D242F8043BF7E74349434A5958C6
:1002400099500433B3F5DE7FF7D1414B802103F899
:10025000011B40498B42F9D13F4B1A603F4B0A22A8
:100260001A70A3F5805324225A70A0221A709A792A
:100270009207FCD59A79D406FCD4394B9A7902F0CE
:100280000C02082AF9D103221A7140225A719A7974
:100290009006FCD5324B9A795106FBD5314A32494A
:1002A00011600221516020221A702D4B9B7903F0BE
:1002B0000C030C2BF9D12D4B2D4A1A602D4B2E4AD5
:1002C0001A6000225A60072243F8042C2B4AC3F814
:1002D0000C2D62B602F0C2FB134B1B68DA0705D582
:1002E000274802F0D3F9274B274A1A60274B1B787F
:1002F0005B0609D5234C244A2368934204D1204845
:1003000002F0C4F90023236005F07EFC02F00AF835
:1003100002F0F2FBFEE700BF0E20054030800440F3
:10032000823F04000100002B14D0034002D007409C
:1003300000E007406087FF1F5490FF1F546A0000D1
:100340005490FF1F08A5FF1F000000000082FF1F40
:1003500000E400E05FE400E008ED00E0005006404B
:100360000040064044800440000003010480044033
:10037000C010050014E000E0FF760100000020201E
:100380000C36BC541CE00340A5C3945A00F007404F
:10039000FFFFFFFFFFFFFFFFFFFFFFFFFFFFFFFF6D
:1003A000FFFFFFFFFFFFFFFFFFFFFFFFFFFFFFFF5D
:1003B000FFFFFFFFFFFFFFFFFFFFFFFFFFFFFFFF4D
:1003C000FFFFFFFFFFFFFFFFFFFFFFFFFFFFFFFF3D
:1003D000FFFFFFFFFFFFFFFFFFFFFFFFFFFFFFFF2D
:1003E000FFFFFFFFFFFFFFFFFFFFFFFFFFFFFFFF1D
:1003F000FFFFFFFFFFFFFFFFFFFFFFFFFFFFFFFF0D
:10040000FFFFFFFFFFFFFFFFFFFFFFFFFEFFFFFFFD
:1004100010B5054C237833B9044B13B10448AFF33E
:1004200000800123237010BD5490FF1F00000000C6
:10043000546A000008B5064B1BB106480649AFF3E5
:1004400000800648036813B1054B03B1984708BD07
:1004500000000000546A00005890FF1F5490FF1FD6
:100460000000000030B505781C1C18BF012425B120
:1004700015FB03F504EB1525EDB20570087820B1E6
:1004800010FB03F004EB1020C0B20870117821B10A
:1004900011FB03F104EB1121C9B2117030BD2DE93C
:1004A000F0478B42089C14D292F800C0A5782778B8
:1004B00084F800C092F801C0667884F801C092F810
:1004C00002C095700D4684F802C019461770567028
:1004D0002B4692F800C05778957894F8008094F8ED
:1004E0000190A2785E1ACCEB0808C7EB0909521BF1
:1004F000B6B24FEAC8184FEAC919D2010EB1B6B266
:1005000000E0012636B298FBF6F899FBF6F992FB6B
:10051000F6F64FEA48084FEA490976001FFA88F8CC
:100520001FFA89F9B6B24FEA0C223C022D02994219
:1005300018D801EB410C00EB0C074FEA222A00F817
:100540000CA04FEA242C87F801C042444FEA252C26
:100550004C443544013187F802C092B2A4B2ADB226
:1005600089B2E4E7BDE8F0872DE9F04F1D4685B07C
:1005700003234FEA4109B1FBF3FB99FBF3F913782D
:100580008DF8083053788DF8093093788DF80A305B
:100590002B788DF80C306B788DF80D3003AEAB787E
:1005A0008DF80E30884602AA5B46009600210E9C0C
:1005B0000F9F8246FFF773FF2B788DF808306B781A
:1005C0008DF80930AB788DF80A3023788DF80C302F
:1005D00063788DF80D301FFA89F9A3788DF80E3005
:1005E0005046594602AA4B460096FFF758FF23781B
:1005F0008DF8083063788DF80930A3788DF80A30CB
:100600003B788DF80C307B788DF80D30BB788DF809
:100610000E3008F1FF3300965046494602AA9BB2BD
:10062000FFF73DFF05B0BDE8F08F2DE9F34104462B
:10063000101100EB40068D1912F00F028E5D6F78DD
:1006400095F802C08DF805608DF806708DF807C02A
:100650002AD09DF82080B8F1000F25D00F2800D0B7
:10066000E91C91F800804D78897812015042C0B29F
:1006700018FB02F815FB02F511FB02F216FB00F65F
:1006800017FB00F74FEA28282D121CFB00F012126E
:1006900008EB162605EB172702EB10208DF80560F6
:1006A0008DF806708DF80700FF2B07D00DF10500BF
:1006B0000DF106010DF10702FFF7D4FE9DF80620AB
:1006C0009DF807309DF80510217020466270A370D8
:1006D00002B0BDE8F081002330B503704370837031
:1006E00082B101F10C04E55C01F10F04E45C35B169
:1006F0002CB1013405FB04445443240CC45401338D
:10070000032BEED130BDFFFF0B4B70B51C68621C94
:100710008C421A600EDB094C094926684FF47A7541
:100720006A430D68751BB2FBF5F2428000221A6025
:1007300023680B6070BD00BF7C90FF1FFCA1FF1FF2
:100740008490FF1F2DE9F34705460E466B68184C51
:1007500033B102F04FF923686A68C01A9042F5D3AA
:1007600002F048F9134B20601C68D4B16B8894F8F0
:100770001280D4F804A0D4F81490632B9CBF0023FB
:10078000A3742368214601A832465F68FFF7A3FFE0
:10079000204651464A4601ABB84784F81280A46807
:1007A000E3E728461921FFF7AFFF02B0BDE8F08765
:1007B0008090FF1F7890FF1F4AB169B1074B93FBF0
:1007C000F1F143688B422CBF43604160704711B127
:1007D000024B93FBF1F14160704700BF40420F00B4
:1007E000F8B51E1E036804461546D8BF00250F46FF
:1007F0009B6805EB4505D8BF16462F4498472368EC
:1008000067601B69666120469847012201460248DD
:10081000FFF7D2FF2046F8BD7090FF1F024BFF226A
:100820001A7000225A8070477090FF1F012810B57F
:1008300018D9B0F5F75F9DBF41110831C9B2FF214A
:10084000012254186410E3B26443A4B2844202D972
:10085000013BD9B203E0FF2B06D00133DAB291425B
:10086000EFD2501EC0B210BD184610BD30B505788D
:100870001C1C18BF012425B115FB03F504EB15253D
:10088000EDB20570087820B110FB03F004EB1020E6
:10089000C0B20870117821B111FB03F104EB1121F2
:1008A000C9B2117030BD2DE9F743077890F8019077
:1008B000847807F01F05ED0005EB850202EB0212BC
:1008C00007F0400617F0800F8846C2F3072207F0B2
:1008D000200006F0FF0328D17EB900F0FF0138B9EF
:1008E000D3438DF805308DF806208DF807104BE0C6
:1008F000AB218DF8051055320BE000F0FF0368B90D
:10090000AA2115FB01F52D12C5F1AB058DF8055097
:10091000553A8DF806208DF8073035E000238DF824
:100920000530D3438DF806302CE0B6B900F0FF0156
:1009300068B98DF80510AA2315FB03F52D0AC5F13A
:10094000AB0355358DF806308DF807501CE08DF857
:1009500005208DF80630D24314E000F0FF0340B9C3
:1009600002F155018DF805108DF80630C2F1AB0289
:1009700008E0A2F155038DF8053000238DF806300C
:10098000C2F155028DF80720B9F1FF0F1FD04B4679
:100990006FEA09090DF105000DF106010DF10702DD
:1009A0005FFA89F9FFF762FF19FB09F99DF8053035
:1009B0004FEA19294B448DF805309DF806304B4419
:1009C0008DF806309DF8073099448DF80790FF2C7C
:1009D0000FD014FB04F3003418BF012404EB1323DD
:1009E0000DF105000DF106010DF10702DBB2FFF775
:1009F0003DFF9DF8053088F800309DF8063088F8F6
:100A000001309DF8073088F8023003B0BDE8F0836C
:100A10002DE9F8430C784E788D78A64234BFB14664
:100A2000A146A94528BFA946C9EB0404C9EB06069F
:100A3000E4B2F6B2C9EB0505EDB23319EB1807467F
:100A400004D10370437080F80290A4E0FF2B10D013
:100A50004FF6FF7292FBF3F204FB02F406FB02F680
:100A600005FB02F5C4F30724C6F30726C5F30725E3
:100A70000DD8C84688FA53F85FFA88F8B8F1FF0F26
:100A800007D04FEA0820FFF7D1FE804601E04FF083
:100A9000FF086FEA0900B8F1FF0FC0B206D00002EC
:100AA00090FBF8F083B2FF2B0CD8C0B2FF280AD01D
:100AB000C0F1FF00000200F47F40FFF7B7FEC04323
:100AC000C0B200E0FF20A5422CBF2B462346B34214
:100AD00038BF3346A3421DD14EB9A4F1800626EAA1
:100AE000E676F6B260235E433612D0364DE0A31BA5
:100AF000B34204DD06EB4606C6F3C70646E05636AB
:100B0000361BF6B2043E26EAE67660235E433612D2
:100B100020363AE0B3421FD15DB9C4F18004803E73
:100B200086FA54F6042386FA53F6C6F3C406403612
:100B30002CE0761BAE4205DD05EB450545F3D706F7
:100B4000603622E0553D25EAE57530266E43C6F352
:100B5000072686F0800619E03CB9803D25EAE57558
:100B600030266E43361288360FE02D1BA54205DD78
:100B700004EB440444F3D706A03606E0553C24EACF
:100B8000E474602666433612C036F6B201363E7013
:100B9000787087F802803846BDE8F88308B5064BC0
:100BA0001A79064B1A7001F025FF054B1860054BAA
:100BB00000221A7008BD00BFA890FF1F1F800040D0
:100BC000A490FF1FA090FF1F10B5044602F07EFA0C
:100BD000204610BD03681A69196100221A755A75FA
:100BE00002229A71B1F1804F036801D39A682AB941
:100BF0000022042119725A729A72DA720368002272
:100C00001A765A769A76DA767047B1F5004F10B5B3
:100C100014D20368B1F5007FDA8B89B202D3D9838D
:100C2000036809E002F47E420A43DC8BDA8303683E
:100C3000DA8A02F47E421143DA8AD98210BDFFFFBC
:100C400010B5054C218005490A60054A1360054B23
:100C50009DF808201A7010BD8E90FF1F9090FF1F06
:100C60009C90FF1F8C90FF1FC44B1B882DE9F04701
:100C7000C34D18245C4328680021224605F02AFB56
:100C8000C04B1868A84620B10021224605F022FB7F
:100C900001E02A681A60BC4BBC4DBD4EFF221A60B1
:100CA0000220012101F0A6FD0E20012101F0A2FD8C
:100CB0000720012101F09EFD0820012101F09AFD8D
:100CC0000620012101F096FD1420012101F092FD82
:100CD0001520012101F08EFD0121052001F08AFD82
:100CE000AC4B1B7813F0100FAB4B4FF0080018BF44
:100CF0001D4601F0DBFC284604F012FD054629469E
:100D0000032001F0DFFC2946042001F0DBFC032076
:100D10003C2101F08BFD0420B02101F087FD9F4BA9
:100D20009F4A1A600320022101F064FD0F20002178
:100D300001F060FD9B4B9C4A1A60A3F5FE530C3BEF
:100D400002F500721A60994D3368B5F1804F1A6848
:100D50001D604FF000021A715A71DA712F4601D3EB
:100D6000996821B9012119725A729A72DA724FF098
:100D7000000983F80C9083F80D9083F80E9083F8A7
:100D80000F908B498248FFF725FF3368B3F90410B1
:100D900083F8099001221A7283F80A9083F80B9065
:100DA00011B11A7183F80590B3F914201AB1012218
:100DB0001A7500225A75DA88754822F4E06222F426
:100DC000E06222F00702DA802146FFF71EFF336857
:100DD0009A8B998B92B242F008029A83D8F800203D
:100DE000DFF8D481D8F8003019681A606242DA60FE
:100DF000A2B24FF00009D98BDA834FF0010AD98AE9
:100E000083F804A0DA8283F8059083F8079083F8CA
:100E100008A083F8099083F80A9083F80B90404665
:100E20006449FFF7D7FED8F80030B3F9042083F8FF
:100E300008A083F8099083F80A9083F80B901AB100
:100E400083F804A083F80590B3F914201AB10122A5
:100E50001A7500225A75DA88574822F4E06222F4A3
:100E6000E06222F00702DA802146FFF7CEFED8F8D2
:100E70000030998B9A8B89B241F0080199834F49D0
:100E80000B680022B5F1804F18681A711F605A7103
:100E9000DA710F4601D3996821B9012119725A728A
:100EA0009A72DA7200251D735D739D73DD73364986
:100EB0004248FFF78FFE3B68B3F904105D720122D0
:100EC0001A729D72DD7209B11A715D71B3F9142045
:100ED0001AB101221A7500225A75DA88374822F4AD
:100EE000E06222F4E06222F00702DA802146FFF796
:100EF0008CFE3B68998B9A8B89B241F008019983EB
:100F0000998B988B2E4889B241F0020199832D4B21
:100F10004FF0805119604FF0402341F232011960C7
:100F2000337903F1804303F504330022B2211A70B0
:100F3000197098F8043003F1804303F50433B321AA
:100F40001A7019703B7903F1804303F504331A706A
:100F5000B1221A703A791C4B02F1100143F82100BA
:100F600053119B0003F1604303F5614302F01F023C
:100F7000012101FA02F21A60BDE8F0878E90FF1F8E
:100F80009090FF1F9C90FF1FC8F00F4000350C0091
:100F90009490FF1F8C90FF1F801A060000A0044051
:100FA0000003010000B00440000102006687FF1F3B
:100FB000C4F00F40C0F00F40B090FF1FA890FF1F7B
:100FC0009D0B00000C0008E00082FF1F10B5224BB3
:100FD0001A781C46002AFAD1204B1968204B186851
:100FE000814205D01F4B1B8818225A4305F0D8F8C0
:100FF00001F000FD1C4B1B68C01A3128F8D91B4BAF
:10100000196818331B6872B601222270184A1068DA
:101010009842FBD910689842FCD810689842FCD3DB
:10102000124A144801F0E70313600123036000F53E
:1010300080500360104B4FF4005018600F4B18792C
:101040000F4B18700F48007918700F48007918700E
:10105000116062B610BD00BFA090FF1F9C90FF1FE3
:101060009090FF1F8E90FF1FA490FF1F00900340E1
:1010700004900340A0A00440A09004409490FF1F5F
:101080001B800040B090FF1FA890FF1F70B5114E4D
:10109000114D124C3046002101F0C4FF3046104E75
:1010A0002246294604F0A0FD3046002101F0BAFF97
:1010B00030460C4E2246294604F096FD304600216B
:1010C00001F0B0FF304629462246BDE8704004F0EA
:1010D0008BBD00BF9490FF1FC90B00006087FF1FEE
:1010E000B090FF1FA890FF1F094B1B7813B9094B45
:1010F0001B782BB1084A1378202B03D901230371E5
:1011000000207047581C1070044A0120D1547047C9
:101110001E91FF1FE190FF1F1F91FF1FC090FF1F37
:101120007047FFFF024B1878024B1B78C01A7047BC
:101130001D91FF1F1C91FF1F064A0749137809786C
:10114000994204D9591C1170044AD05C70474FF081
:10115000FF3070471C91FF1F1D91FF1FE290FF1F82
:10116000054B064A1B7812789A4286BF044AD05C27
:101170004FF0FF30704700BF1C91FF1F1D91FF1FF4
:10118000E290FF1F70B50E4B1B78144613B90D4B40
:101190001B7893B10C4A1578C5F121039C42164681
:1011A00002D9012202711C460848224628442544DF
:1011B00004F0F6FF3570204670BD184670BD00BFC4
:1011C0001E91FF1FE190FF1F1F91FF1FC090FF1F87
:1011D00010B5114BDB7803F0200303F0FF045BB97B
:1011E000122001F03BFA0D4B1B68A3B10C4A14709E
:1011F0000C4A1078984710BD0B4A13780133DBB2C4
:10120000012B137002D8094B1B7823B91220BDE8BB
:10121000104001F023BA10BD00600640BC90FF1FD3
:101220001C91FF1F1D91FF1F0891FF1FE190FF1FE1
:10123000002202714FF47A710273024A81600260E7
:10124000704700BF3067000010B53649CB78DBB27D
:1012500013F0100F03F0400201D12AB92CE0102046
:10126000C870002AF9D110BD03F0040303F0FF0198
:101270002D4AC3B1002313702C4A13702C4B1B68EA
:10128000144603B1984723782A4A1BB9274913709B
:1012900001200870234BD021997012781A71264BC7
:1012A00001221A7039E001231370244B19701D4B71
:1012B000C0229A701B7930E01A4CA27802F010021A
:1012C00002F0FF01AAB113F001030ED11A49174829
:1012D0000A780078904203D9531C0B70154B9B5C25
:1012E0002371104BD0229A7017E0C023A37023798A
:1012F00013E0134B032219701220124901F068F910
:101300000E4A217913781F2BC9B206D806480078F7
:1013100018B1581C10700C4AD154024B0222DA70DA
:1013200010BD00BF00600640B890FF1F1F91FF1F57
:101330000491FF1FC090FF1F2091FF1F1D91FF1FF1
:101340000891FF1FD1110000E290FF1F0148FFF735
:101350006FBF00BF0C91FF1F074A138803EB4320A8
:1013600003EB800000F55850193080B2108000EB7C
:101370001020C0B2704700BF6487FF1F0020704775
:10138000704738B5044608460D4605F003F8236853
:1013900002465B6820462946984738BD38B5044662
:1013A000FFF7EFFF0546204601F072FD284438BDE7
:1013B00010B54FF07E5104F003F90649044604F0DD
:1013C000A5FB20B92046034904F0F8F810BD2046DB
:1013D00010BD00BF00007C4410B54FF07E5104F0FA
:1013E000EDF80021044604F0A5FB20B9204603498E
:1013F00004F0E6F810BD204610BD00BF00007C449C
:1014000038B504460025284604F08EF90749033410
:1014100004F07CFB40B1002304F8033C04F8023CD8
:1014200004F8013C0135EEE738BD00BF00007C4404
:10143000F8B506460025ECB2204604F075F90B49D4
:10144000013504F063FB78B104EB4407FF23F35547
:10145000F41907486370A3700178FFF773F900234C
:10146000F3556370A370E6E7F8BD00BF00007C444D
:101470007090FF1F38B504461948056815F001053E
:101480001FD100F059FFE0B1164BFF221A735A73B7
:101490009A73DA731A745A7401229A74124A5D604C
:1014A00011685D619D6001B9136010490A6802B15D
:1014B00093600F4A1A600A480B6000229A6100F09C
:1014C00041FF21464FF47C7200230648FFF788F95C
:1014D000084B802220461A70FFF7AAFF204638BD2D
:1014E000209DFF1FFC9CFF1F7890FF1F8890FF1F0F
:1014F000506700007090FF1F10B5084C2368DB0791
:1015000009D4204600F018FF28B10548FFF7B2FFC4
:10151000204600F017FF024810BD00BF289DFF1FA6
:101520002391FF1F2DE9F8430C4617461D468E18E0
:10153000331BAB4219DA254B96F80080B3F9003023
:1015400003EB83034FEA430999FBF5F9FFF704FF27
:1015500009F102095FFA89F910FB09F9A8EB2928BA
:1015600028EAE87806F8018BE2E7EA1E6319BA4236
:1015700003F1FF330CDD13F8040C13F8031C01EB2B
:101580004001032091FBF0F103F8021C013AEEE761
:10159000FFF7E2FE0E4BB3F90030984214DAFFF782
:1015A000DBFE00B2C0EBC00000120744255CFFF771
:1015B000D3FE00B200EB4003C0EB431000126038D2
:1015C0002B4683FA50F3E355BDE8F8836887FF1F85
:1015D0006A87FF1F70B5084694B00C46304904F086
:1015E00095FA00B92E4C20462D4904F0A5F92D4955
:1015F00004F0EEF804F0D8FA4FF4E172C0B24243BE
:10160000294B121232321A80AA2210FB02F2274B07
:1016100012121E321A8005B200238DF810308DF898
:1016200011308DF8123005EB4503C5EB43131B1247
:10163000FF24603B02A805A980268DF808308DF8AC
:1016400009408DF80A40AD08FFF72DF98DF80D40DF
:101650008DF80E4006AC2146751B03A88DF80C5082
:10166000FFF721F907AB1021009401930DEB010264
:1016700008A805AB8DF81C608DF81D608DF81E6004
:10168000FEF772FF0A4A08AC14AD234603CBAB4207
:10169000106051601C4602F10802F6D114B070BD12
:1016A0000000204100007F436887FF1F6A87FF1FFB
:1016B00028A1FF1F064B10B518684FF081414FF06D
:1016C000010404F041FA00B90446024B1C7010BD3D
:1016D00058A1FF1F2F9DFF1F38B510481049114D0D
:1016E000114CFFF75BFE114B1A68114B1A602B6807
:1016F00013F0010F0BD1284600F01EFE38B1FFF7A2
:10170000FBFE002320602846636000F01BFE094BAF
:101710001C60FFF7F1FE084B186038BD00A2FF1FE8
:1017200068670000249DFF1FF49CFF1FFCA1FF1FA2
:1017300064A1FF1F70A1FF1F24A1FF1F2DE9F04F1F
:101740000D4685B0AB4280461E460E9C9DF83C106F
:1017500014D292F800C0A378277884F800C092F8D9
:1017600001C0607884F801C092F802C093702B46E3
:1017700084F802C03546177050701E4694F802C0B7
:10178000BCF1000F01D063780BB913782370907807
:10179000237808B1577807B9137094F801B05778D7
:1017A0001478C7EB0B0BC0EB0C0C1B1B02294FEA88
:1017B000CB1B4FEACC1CDBB201D1D90904E00329D1
:1017C00002D11A0603D500E009B9DB0104E05B424F
:1017D000DBB2DB015B429BB2721B92B20AB192B2E6
:1017E00000E0012212B21BB293FBF2FA9BFBF2FB68
:1017F0009CFBF2F24FEA4A0A4FEA4B0B52001FFAE7
:101800008AFA1FFA8BFB92B224023F024FEA0029A8
:10181000B5421BD823128DF80C3005EB45013B1265
:101820008DF80D3003A84FEA2923414401928DF829
:101830000E30FFF738F8019A54445F449144013563
:10184000A4B2BFB21FFA89F9ADB2E1E705B0BDE8B5
:10185000F08FFFFF2DE9F04190B0FFF77DFD3F23B2
:10186000B0FBF3F301331828DBB24C4D4C4C4D4E1A
:1018700016D82A7813442B70FFF76EFD4A4B00B23E
:1018800000EB4000B3F900100212013251FA82F26B
:10189000A2F1280189B23C2988BF28221A8019E0C8
:1018A0004A2812D82278134423701923B0FBF3F08E
:1018B0003E4B1A8852FA80F080B2A0F11E02AA2A8A
:1018C00001D8188006E01E22E8E7952802D8327871
:1018D00013443370364B1A788DF80C205A789B7865
:1018E0008DF80E302B788DF808306B788DF8093034
:1018F0000DF10808AB788DF80D2002278DF80A301D
:1019000004A8002103AA0523CDF800800197FFF762
:1019100015FF2B788DF80C306B788DF80D30AB7887
:101920008DF80E3023788DF8083063788DF8093003
:10193000A3788DF80A3004A8052103AA0A23CDF85C
:1019400000800197FFF7FAFE23788DF80C3063785A
:101950008DF80D30A3788DF80E3033788DF808307F
:1019600073788DF80930B3788DF80A3003AACDF872
:101970000080019704A80A210F23FFF7DFFE0D4A1C
:1019800004AC10AD234603CBAB42106051601C4643
:1019900002F10802F6D110B0BDE8F0812C9DFF1FC6
:1019A00068A1FF1F6BA1FF1F6887FF1F6A87FF1FCA
:1019B00060A1FF1F28A1FF1F2DE9F04F054687B04A
:1019C0000C461BB11146FFF705FE01E0FFF742FF91
:1019D0002846364900227A23FFF7A4FD28463349DA
:1019E0007A22F423FFF79EFD204603F099FE00249F
:1019F00007460646DFF8B490304614F809200392F3
:101A000004F0ACF8039AD5F800B029490123C2EBE1
:101A1000021200EB400A009305A8C2F30712FF234D
:101A2000FEF703FE0BEB0A089DF814300BF80A30A2
:101A30009DF8153088F801309DF8163088F802308E
:101A40003046FFF7C9FC01347A2C0646D2D138461D
:101A5000FFF7AEFC0646304604F080F819F804B0F3
:101A6000D5F800A012490123CBEB0B1200EB400884
:101A7000009305A8C2F30712FF23FEF7D6FD0AEB79
:101A800008079DF814300AF808309DF815307B706F
:101A90009DF81630BB703046FFF78AFC0134F42CF9
:101AA0000646D8D107B0BDE8F08F00BF309DFF1FBC
:101AB00028A1FF1F2DE9F7432A4C2B4D22686423F0
:101AC00092FBF3F603FB1626002E31D1274B284F4D
:101AD000D3F800803868C0EB080003F025FE2549E4
:101AE00003F02AFF244981462448FFF74AFC484670
:101AF00003F052FA02460B460020214903F0CAFBCC
:101B00000B460221024600911C4801F009FA1D49CA
:101B10001A48FFF743FCC7F80080FFF7CBFD1748D2
:101B200029780A22334601F0C3F9144801F0B0F9CC
:101B3000154B29781868154B1A68154B1B78FFF759
:101B40003BFF322000F074FF12480178FEF7FAFDE7
:101B5000114B1868FFF754FC23680133236003B06E
:101B6000BDE8F0835CA1FF1F20A1FF1FFCA1FF1FA8
:101B700064A1FF1F00007A447467000000A2FF1FE9
:101B8000000059407967000070A1FF1F58A1FF1F96
:101B90002F9DFF1F7090FF1F24A1FF1FF7B58769BE
:101BA00004460E46D7B918254D43284604F054F88C
:101BB000E061284604F050F82062012001F030FA7C
:101BC00000973146226AE3690546FFF739F828464F
:101BD000A56103B0BDE8F040FFF746B803B0F0BD23
:101BE00073B504460E46FFF7D9FF23681D6800232E
:101BF0008DF800308DF801308DF802308DF804300A
:101C00008DF805308DF8063020466946324601AB26
:101C1000A84702B070BDFFFF10B5164B1A7801320D
:101C200002F0070212F0010F1A7014BF8023002384
:101C3000910744BF43F04003DBB2520748BF43F073
:101C400020031033D9B20022837B2BB14FF4807470
:101C500094FBF3F30133DBB211FB03F42412C372E0
:101C600004720BB1013BC3720132032A00F101007F
:101C7000EAD110BD2291FF1F2DE9F04F1E46054607
:101C80009BB00F4611461446FFF788FF3278AB7CB5
:101C90008DF84A2072788DF84B20012BB2780F977F
:101CA00010948DF84C2003D10FA8FFF7B5FF0CE07E
:101CB00000238DF849308DF848308DF847308DF885
:101CC00046308DF845308DF8443000230F9E8DF856
:101CD0004D30737823B19DF8452083FA52F3DBB27F
:101CE0009DF84B2013FB02F114A8090A082204F006
:101CF000F1FA337823B19DF8442083FA52F3DBB232
:101D00009DF84A2013FB02F116A8090A082204F0E4
:101D1000E1FAB37823B19DF8462083FA52F3DBB29F
:101D20009DF84C2013FB02F1090A082218A804F0C0
:101D3000D1FA1599149881EAD11303F0AA1383EA12
:101D4000010282EAC31282EA92314CF6CC430B4084
:101D50005A4082EA833680EAD01303F0AA1383EA5A
:101D6000000181EAC31181EA91324CF6CC43134061
:101D700083EA010282EA833206F0F0313601130968
:101D800006F0F03602F00F32324303F00F330B430C
:101D9000D1B20191C2F307210291C2F30741120EA1
:101DA0000492DAB20592C3F307420792179A03919D
:101DB00082EAD21606F0AA167240C3F3072182EA1D
:101DC000C6161B0E86EA963208934CF6CC43134097
:101DD000169806915E4086EA833680EAD01303F0B7
:101DE000AA1383EA000181EAC31181EA91334CF618
:101DF000CC421A40514081EA8232100906F0F03399
:101E000000F00F301843330102F00F3203F0F033CB
:101E10001343D9B2C3F307220991C3F307411B0E41
:101E20000C93C0F307230093199B189E0A9283EA30
:101E3000D31707F0AA177B4083EAC71787EA973EB4
:101E40004CF6CC430EEA03035F4087EA833786EA09
:101E5000D61303F0AA135E4086EAC31686EA963EBE
:101E60004CF6CC430EEA03035E4086EA83334FEA26
:101E7000131B4FEA071C07F0F03603F00F330BF08B
:101E80000F3B0CF0F03C4BEA060B4CEA030CC2B2E1
:101E9000EB690B915FFA8CF6C0F30741CCF307278F
:101EA000CCF3074E5FFA8BF8CBF30729CBF3074A45
:101EB0000D92000E4FEA1C6C4FEA1B6B14F1FF34BD
:101EC0002DD3089A1A70079A5A70069A9A70059A32
:101ED000DA70049A1A71039A5A71029A9A71019AE5
:101EE000DA71009A9A720D9ADA720C9A1A730B9A36
:101EF0005A730A9A9A73099A18725972DA7383F8A4
:101F000010B083F811A083F8129083F8138083F83F
:101F100014C083F815E09F75DE751833CEE7A86905
:101F2000FFF754F81BB0BDE8F08FFFFF10B5164B5C
:101F30001A78013202F0070212F0010F1A7014BF72
:101F400080230023910744BF43F04003DBB25207D4
:101F500048BF43F020031033D9B20022837B2BB15A
:101F60004FF4807494FBF3F30133DBB211FB03F401
:101F70002412C37204720BB1013BC3720132032AF3
:101F800000F10100EAD110BD2191FF1F38B51546BF
:101F900080E822001A7882735A789B7803749DF83F
:101FA0001030C273012B044602D1FFF7BFFF06E0D9
:101FB000002343730373C372837243720372032358
:101FC0006374002305EB45051A4604EB83014A615F
:101FD000FF211941C90703F1010348BF5219082B1A
:101FE000F3D1204638BDF0B5054693B00E461146F4
:101FF0001F461446FFF7D2FDAB7C009305A83B4675
:1020000031462246FFF7C2FFEB6914F1FF34C0F0FE
:102010002281DDF814E09DF81D709DF82300002258
:1020200005AE06EB820149697144497811B181FA24
:1020300057F1C9B203AE11FB00F10912B1540132DC
:10204000082AEDD10498039F80EAD01202F0AA1268
:1020500082EA000181EAC21181EA91304CF6CC4259
:102060000240514081EA823E87EAD71202F0AA126A
:1020700082EA070080EAC21080EA90314CF6CC4236
:102080000A4082EA000181EA82310EF0F0304FEA24
:102090000E1E0A090EF0F03E01F00F314EEA01016A
:1020A00002F00F320243080AD9719871080C090E28
:1020B0001971110ADA709970110C120E1A70587198
:1020C000597005989DF81CE09DF8227000220DF1D2
:1020D000140C0CEB82014969415C11B181FA5EF18B
:1020E000C9B211FB07F10912B1540132082AEED12D
:1020F000049A039982EAD21707F0AA177A4082EA73
:10210000C71787EA973E4CF6CC420EEA02025740C8
:1021100087EA823E81EAD11202F0AA1282EA01071E
:1021200087EAC21787EA97314CF6CC420A4082EA26
:10213000070181EA82310EF0F0374FEA0E1E0A09DC
:102140000EF0F03E01F00F314EEA010102F00F32C5
:102150003A430F0AD9739F730F0C090E1973110AB2
:10216000DA729972110C120E1A725F7359729DF81D
:102170001EE09DF8247000220DF1140C0CEB82017E
:1021800049690144897811B181FA5EF1C9B211FB44
:1021900007F10912B1540132082AEDD1049E039FC0
:1021A00086EAD61202F0AA1282EA060181EAC21178
:1021B00081EA91364CF6CC423240514081EA823E6F
:1021C00087EAD71202F0AA1282EA070686EAC21646
:1021D00086EA96314CF6CC420A4082EA060181EA50
:1021E00082310EF0F0364FEA0E1E0A090EF0F03E74
:1021F00001F00F314EEA010102F00F3232430E0AB4
:10220000D9759E750E0C090E1975110ADA74997438
:10221000110C120E5E7559741A749DF81F109DF8FA
:102220001C208A1A8DF81C209DF820109DF81D2076
:102230008A1A8DF81D209DF821109DF81E208A1AFB
:102240008DF81E209DF925201044069A0590013A2C
:1022500018330692D9E6A869FEF7B8FE13B0F0BDB0
:1022600037B5002501A915488DF80450FF248DF8D5
:1022700005508DF80650FEF7CBFB01A910488DF8EC
:1022800004408DF805508DF80650FEF7C1FB01A9FA
:102290000C488DF804408DF805408DF80650FEF787
:1022A000B7FB09488DF8044001A98DF805408DF869
:1022B0000640FEF7ADFB03B030BD00BF60A1FF1FBD
:1022C0002C9DFF1F68A1FF1F6BA1FF1F024B1A6807
:1022D00001321A60704700BFFCA1FF1F08B50B4C0C
:1022E0002368580301D502F009F82368590501D580
:1022F00001F0BEF923681A0501D501F077FC2368C7
:10230000DB04ECD501F0C8FEE9E700BF34800440EF
:1023100008B5FFF7E3FFFFFF014B10221A8070475B
:10232000002005407047FFFF024A13681844106000
:10233000184670476C87FF1F0078D0F1010038BF46
:1023400000207047012303707047FFFFEFF31383F2
:102350009BB9EFF3108098B9EFF3058323B10F2BEE
:1023600004D9084A985C01E04FF48070EFF31183C0
:102370003BB1834238BF184670474FF0FF3070477B
:1023800018467047F0E300E01F4B10B51C681C6056
:10239000E00304D51D4B1A680AB11B689847A103D6
:1023A00004D51A4B5A680AB15B689847E20704D50E
:1023B000164B1A6C0AB11B6C9847A30704D5134B34
:1023C0005A6C0AB15B6C9847200704D50F4B9A6C86
:1023D0000AB19B6C9847610704D50C4BDA6C0AB1C3
:1023E000DB6C9847220304D5084B5A6E0AB15B6E2A
:1023F0009847630306D5054BD3F8802012B1D3F874
:102400008030984710BD00BFA0A0044074A1FF1FFA
:102410002C4B10B51C681C60200704D52A4B5A6A47
:102420000AB15B6A9847E10604D5274B9A6A0AB15C
:102430009B6A9847620604D5234BDA6A0AB1DB6AC5
:102440009847230604D5204B1A6B0AB11B6B98479B
:10245000A00604D51C4B5A6B0AB15B6B9847E10789
:1024600004D5194BDA6B0AB1DB6B9847A20704D588
:10247000154B9A6D0AB19B6D9847630704D5124BB3
:10248000DA6D0AB1DB6D9847A00504D50E4BDA6E04
:102490000AB1DB6E9847E10504D50B4B1A6F0AB100
:1024A0001B6F9847620504D5074B5A6F0AB15B6FE3
:1024B0009847230504D5044B9A6F0AB19B6F984740
:1024C00010BD00BFA0B0044074A1FF1F1E4B10B58B
:1024D0001C681C60E00704D51C4B9A680AB19B6815
:1024E0009847210604D5194B5A690AB15B69984788
:1024F000E20604D5154B9A690AB19B6998476307B0
:1025000004D5124BDA690AB1DB699847200704D574
:102510000E4B1A6A0AB11B6A9847A10704D50B4BE8
:102520009A6B0AB19B6B9847A20604D5074B1A6DAC
:102530000AB11B6D9847630604D5044B5A6D0AB166
:102540005B6D984710BD00BFA0C0044074A1FF1F81
:10255000114B10B51C681C60E00404D50F4BDA6801
:102560000AB1DB689847A10404D50C4B1A690AB17B
:102570001B699847A20604D5084B1A6E0AB11B6E58
:102580009847E30606D5054BD3F8842012B1D3F85B
:102590008430984710BD00BFA090044074A1FF1F75
:1025A000094B10B51C681C60A20704D5074B9A6E36
:1025B0000AB19B6E9847E30704D5044BDA6F0AB162
:1025C000DB6F984710BD00BFA0D0044074A1FF1F6F
:1025D000212830B531D8042A2FD8DFE802F00709C6
:1025E000050B03000B2306E00A2304E0082302E0A6
:1025F0000C2300E00923114A114D02EBC00254687C
:10260000104AC2F89C51104DC2F8A0510F4DC2F8AB
:10261000A4510F4DC2F8A8510E4DC2F8AC5172B67C
:1026200022680D4D22F47022226042F0807242EA4C
:10263000034345F82010236062B630BD7C6700007C
:10264000512500000082FF1F892300001124000093
:10265000CD240000A125000074A1FF1F094B03EB4E
:10266000C0035A6872B6136823F0877323F480336B
:1026700043F080731360044B002243F8202062B6BD
:10268000704700BF7C67000074A1FF1F044B054921
:1026900000221A600A60044A106010221A60704713
:1026A00014D0034004D0034000D0034018B11028D8
:1026B00028BF102000E00120014B1870704700BFB8
:1026C0007087FF1F2DE9F04105460E4608462E494A
:1026D00003F01CFA2D4B002847F6122814BF0227DE
:1026E000012708BF9846002428FA04F003F018F8E0
:1026F0004FF05E5103F06CF80146304603F01AFAD1
:1027000010B90134072CEFD128FA04F003F008F8CF
:10271000314603F011F94FF07C5102F04FFF03F006
:1027200043FA4FF6FF73984228BF1846EB1E012B61
:1027300006D8174B174900221A600A60164A1BE098
:10274000A5F10903012B06D9A5F11403032B02D926
:102750006B1F012B06D8114B114900221A600A6029
:10276000104A09E0202D01D0192D0BD10E4B0F4935
:1027700000221A600A600E4A04F0070444EAC70700
:1027800010601F60BDE8F081001BB740006CDC02E8
:1027900000900340049003400890034000800340F1
:1027A000048003400880034000800B4004800B40FD
:1027B00008800B40212810B518D80D4A52F8303047
:1027C00093F880423CB1012211B183F8802010BD02
:1027D00083F8002110BD02EBC00043681A6811B1F4
:1027E00042F0030201E022F002021A6010BD00BFB5
:1027F0007C670000212816D80B4A02EBC003012990
:102800005B6852F8302004D182F880124FF4A27233
:1028100008E0002082F8800211B94FF4807201E0D4
:1028200040F203121A6070477C670000282838B510
:10283000604A04460B4611D112780B2A04D8C2F123
:102840000C0201FA02F304E00C2A1CBF0C3A41FA14
:1028500002F31846BDE8384000F0AEBC11780125FF
:10286000002B05FA01F2D8BF002102DD934205D307
:102870002946FFF79FFF2046294697E00338C2B25A
:10288000012A01D84C4A06E0202C01D0192C01D194
:102890004A4A00E04A4A126802FB0332CA401D2835
:1028A0007BD8DFE800F0575F4E337A7A212A7A7AB4
:1028B0007A7A7A7A7A7A7A3C450F187A707A7A7AC2
:1028C0007A7A7A673F4B1A6003F5973340F24442B5
:1028D00003F5FA735FE03C4B1A6003F5973340F25F
:1028E000444203F5F87356E0384B1A6003F597330A
:1028F00040F2444203F5F6734DE0354B1A6003F5A0
:10290000973340F2444203F5F47344E0314B1A60CC
:1029100003F59F3340F2444203F5F0733BE02E4B46
:102920001A6003F59F3340F2444203F5EE7332E040
:102930002A4B1A6003F59F3340F2444203F5EC73CF
:1029400029E0274B1A6003F59F3340F2444203F518
:10295000EA7320E0234B1A6003F580334FF4517281
:10296000203318E0204B1A6003F580334FF4517286
:102970001C3310E01D4B1A60A3F5DB234FF451729A
:10298000A3F5F96307E01A4B1A60A3F5DB234FF4B4
:102990005172A3F2CC731A6038BD7F2B2046D4BF8E
:1029A00000210121FFF706FF20460121BDE8384044
:1029B000FFF720BF7087FF1F0890034008800B407F
:1029C00008800340108003401880034020800340AB
:1029D000288003403080034038800340408003401B
:1029E00048800340109003401890034010800B4033
:1029F00018800B4072B60B4B0B491A680B4B1B68C7
:102A0000096862B6490102D5322A88BF0133C2F58E
:102A1000BB326021FF32B2FBF1F24FF47A7000FB5F
:102A20000320704718E000E004ED00E0FCA1FF1F68
:102A300038B50446FFF7DEFF054624B938BD013C32
:102A40000AD005F57A75FFF7D5FF401BB0F57A7F00
:102A5000F5D200F077F8F6E738BDFFFF1F4B4FF4D3
:102A6000000210B51A604FF080721A604FF00072C9
:102A70001A604FF080621A604FF000621A60184BC3
:102A8000184A194C00204BF6FF7118605960282332
:102A90001360936013619361136293621363936392
:102AA0000922226004F58054043420606160A36030
:102AB000236144F8042C04F5FE2420600B480160D7
:102AC0000B490B608B600B4B1A6000F019FBFA206E
:102AD000FFF7AEFFBDE8104001F00EBF08E100E0D7
:102AE000048003400C8003400080034008800B40BA
:102AF0000C800B4000800B4008B5FEF7EDFDFEF7A3
:102B0000D9FF00F01FF8FAE701F0B0BF01F06CBF89
:102B100001F090BF02F02CB8084602F01DB808463C
:102B2000114601F0B1BF7047044B00221A714FF4F7
:102B30007A711A73024A99601A60704700A2FF1FE7
:102B40009868000010B50E4C2378BBB901232370A0
:102B500001F08CFF08B1FFF7E6FF00F013FD08B1AC
:102B600000F082F800F0CCFF08B100F0FFF801F0AF
:102B70002FFA08B100F07CF90023237010BD00BFCC
:102B800010A2FF1F08B50368C9B21B68984708BDAB
:102B900008B50368C9B21B68984708BD08B5036843
:102BA000C9B21B68984708BD08B50368C9B21B685D
:102BB000984708BD4B0803F1376000F5D830B0FBEB
:102BC000F1F000F013BB10B54B0803F1376000F5CE
:102BD000D8301446B0FBF1F000F008FB2046BDE809
:102BE000104000F049BB00F071BB084600F0A2BBEA
:102BF00008B5084600F0BAFB003018BF012008BD38
:102C000008B5084600F0D4FB003018BF012008BD0D
:102C100000F0B8BC00F0F0BC00F0C4BC00F096BC02
:102C200000F002BD00F09CBC08B5084600F0E6FBD1
:102C3000012008BD08B5084600F0E0FB012008BDF2
:102C400010B508461446114600F022FC204610BD7F
:102C500038B508460D4603F09DFB0446214628463C
:102C600000F016FC204638BD7047FFFF044B0022E1
:102C70001A714FF47A711A73024A99601A60704798
:102C800014A2FF1FB868000008B50368C9B21B682A
:102C9000984708BD08B50368C9B21B68984708BDC6
:102CA00008B50368C9B21B68984708BD08B5036832
:102CB000C9B21B68984708BD4B0803F1376000F59F
:102CC000D830B0FBF1F000F057BD10B54B0803F160
:102CD000376000F5D8301446B0FBF1F000F04CFD41
:102CE0002046BDE8104000F08DBD00F0B5BD08469F
:102CF00000F0E6BD08B5084600F0FEFD003018BF44
:102D0000012008BD08B5084600F018FE003018BFC5
:102D1000012008BD00F0F4BE00F02CBF00F000BFA1
:102D200000F0D2BE00F03EBF00F0D8BE08B50846A5
:102D300000F022FE012008BD08B5084600F01CFE88
:102D4000012008BD10B508461446114600F05EFE8D
:102D5000204610BD38B508460D4603F01BFB04465F
:102D60002146284600F052FE204638BD7047FFFF3E
:102D7000044B00221A714FF47A711A73024A996057
:102D80001A60704724A2FF1F1069000008B503688D
:102D9000C9B21B68984708BD08B50368C9B21B686B
:102DA000984708BD08B50368C9B21B68984708BDB5
:102DB00008B50368C9B21B68984708BD4B0803F102
:102DC000B76000F55840B0FBF1F000F093BF10B5CC
:102DD0004B0803F1B76000F558401446B0FBF1F022
:102DE00000F088FF2046BDE8104000F0C5BF00F0AD
:102DF000EDBF084601F01EB808B5084601F036F8E8
:102E0000003018BF012008BD08B5084601F050F891
:102E1000003018BF012008BD01F0DAB801F012B986
:102E200001F0E6B801F0B8B801F024B901F0BEB87D
:102E300008B5084601F05AF8012008BD08B5084653
:102E400001F054F8012008BD10B50846144611469B
:102E500001F096F8204610BD38B508460D4603F03F
:102E600099FA04462146284601F08AF8204638BDE2
:102E70007047FFFF044B00221A714FF47A711A73E6
:102E8000024A99601A60704734A2FF1F6869000007
:102E900007B5064B1B88ADF80430036801A95B68D1
:102EA0000222984703B05DF804FB00BFB869000038
:102EB00070B505468AB022B90368C9B21B68984745
:102EC0002CE0012A08BF0A2221B930228DF82520E2
:102ED000212413E02124B1FBF2F002FB1011C9B24E
:102EE00009290AAE94BF303137312644C9B206F8F9
:102EF000241C014610B1013CE4B2ECE733B1013CC3
:102F0000E4B20AAB23442D2203F8242C2B6801A938
:102F10005B6828462144C4F1220298470AB070BD7C
:102F20002DE9FF47804614461D46104619460022EB
:102F300000239DF8309002F0F5FA20B105F100472A
:102F40003D46012600E00646334B00270022F9B239
:102F500049450AD2104619462DA3D3E9002302F0B1
:102F60006FF8013702460B46F1E72046294601F08B
:102F7000B5FE0D46044602F0FDFA074633464046CC
:102F800039460A22FFF794FF0646B9F1000F3BD0FD
:102F9000384601F0DFFFB9F10F0F28BF4FF00F09DE
:102FA0000B4602462946204601F096FE09F101092A
:102FB0002E238DF800305FFA89F94FF0010A0022C4
:102FC000164B02F03DF80D46044602F0D3FA04AB6E
:102FD0005344C0B200F1300203F8102C01F0CAFFD4
:102FE0000AF1010702460B46FFB22046294601F0CE
:102FF00073FE4F4501D0BA46E1E7D8F800304046AD
:103000005B6869464A469847304604B0BDE8F08799
:103010009A9999999999B93F0000E03F000024409E
:1030200002F01ABE30B572B6254C09B9026812B961
:10303000218800230FE003790F2BF9D8218819414B
:10304000C907F5D503F1007303F59063B2EB431F95
:10305000EED162B630BD41FA03F212F0010227D17F
:1030600001259D402943218062B6164CD9B20171D9
:10307000256845F00205256054F8045C03F10073EF
:1030800045F0020544F8045C03F590630E4C5B01C7
:1030900082252560A176A1772176E17703601A6009
:1030A0005A609A60DA601A615A619A61DA6130BDD9
:1030B0000133102BCFD162B600220260037130BD04
:1030C00044A2FF1F408004400080004003790F2B82
:1030D00010D8094A137072B6084B0279012101FA1F
:1030E00002F2198821EA02021A8062B610230371E3
:1030F00000230360704700BF1A80004044A2FF1FF6
:1031000010B5204B2048214960221A70E1225A70E4
:103110001F4B204A1C78204B082C01D1012402E0CF
:103120000A2C03D139240460132005E00C2C0CBFB9
:1031300035243D2404601220086014601860174B89
:1031400017491B78174A03B101230B601360164B14
:10315000164A1978164B012901D880210BE0042961
:1031600001D8842107E0082901D8852103E010292E
:1031700094BF86218721116019600E4B01221A70BD
:1031800010BD00BF0040074008B003400CB0034032
:103190007187FF1F08B00B400CB00B4047A2FF1F08
:1031A00020B0034020B00B407287FF1F24B00340C3
:1031B00024B00B4046A2FF1F084B1A6842F480520D
:1031C0001A60074B1A78074B0AB1802200E0C02230
:1031D0001A70054B80F30C00188070472C80044057
:1031E00047A2FF1F21C00C4000C00C40194B1A68B9
:1031F00042F480621A60184A00231370174A137051
:10320000174A1370174A1370174A1370174B40F27E
:1032100013321A604FF451725A60154BC0F34432A6
:103220001A70C0F347125A700221042200F01F00E6
:1032300098729A70D9745A7588221A743C22DA707E
:103240000C4B40226FF44A711A700B444FF4005239
:103250001A60704734800440CEA2FF1F4DA2FF1FAA
:10326000D4A2FF1FCFA2FF1F4CA2FF1F40A004400B
:1032700000A006402DE400E0134A937800F003011B
:1032800003F0EC030B43410748BF43F01003937076
:1032900000F00F03042B0C4903D18B7943F040035A
:1032A0008B715379C20603F0EF03074A48BF43F01E
:1032B000100353719379810603F0EF0348BF43F085
:1032C00010039371704700BF00A0064008B5114B72
:1032D0001B685B0500D408BD0F4B1A7802F0FF0392
:1032E00012B1FFF72FFCF7E70C4A4FF400511160C1
:1032F0000B4A0C49D37040F203120A604A600A4A32
:1033000013700A4A13700A4B1B680BB101221A7022
:1033100008BD00BF348004404CA2FF1F84E100E0E0
:1033200000A0064040A00440CEA2FF1F4DA2FF1FF8
:1033300048A2FF1F38B50446094B1B7803F0FF0570
:10334000002BF9D120460121FFF754FA20462946E7
:10335000FFF730FA034B53F83420034B1A6038BDA3
:103360004CA2FF1F7C670000D0A2FF1F0D4A38B59A
:10337000146814F480624FF0000410D021280A4D24
:103380000AD80A4A012152F830302B60FFF732FA8E
:103390002B681C70012038BD2C60204638BD1046BB
:1033A00038BD00BF3480044048A2FF1F7C67000086
:1033B0000E4B1B6813F4806316D012280C4B03D1FC
:1033C00040F202310B4A04E0142809D10A4A40F2C3
:1033D000023111605A7B42F001025A73012070479A
:1033E0005A7B02F0FE025A7300207047348004407A
:1033F00000A006400CA0044014C00440F8B51D4BCA
:103400001B685A05064633D51B4B1B680BB10122BE
:103410001A701A4B1C780134402C1F4628BF002418
:10342000174D2B78A34218D1FEF790FF40280FDCF0
:10343000144A13791B06F3D52B7813490133402B1B
:1034400028BF0023C95CDBB2C9B2D1712B70E7E79A
:10345000FF28E5DDFFF776FBE2E70B4BF6B21E55E2
:103460000A4B01221A70074BE4B2BC223C70DA709E
:10347000F8BD00BF34800440D0A2FF1FD4A2FF1FBC
:10348000CFA2FF1F00A006404EA2FF1F4CA2FF1FAD
:10349000274B1B685A052DE9F04707468A4644D555
:1034A000244B1B680BB101221A703D4607EB0A033F
:1034B0009D4237D2DFF890801F4E98F8004096F872
:1034C00000900134402C28BF00245FFA89F9A145FF
:1034D0001DD11A4BBC22DA70FEF738FF40280FDCF2
:1034E000164A13791B060FD5337815490133402B43
:1034F00028BF0023C95CDBB2C9B2D171337003E0CD
:10350000FF2801DDFFF71EFB33784B45E4D00C4B61
:1035100015F8012B1A550B4B0122E4B21A7088F8EA
:103520000040C3E7054BBC22DA70BDE8F08700BF5E
:1035300034800440D0A2FF1FCFA2FF1F00A006408E
:103540004EA2FF1F4CA2FF1FD4A2FF1F08B5034BC2
:103550001B7813B1FFF7F6FAF9E708BD4CA2FF1F7D
:10356000064A074B1B781078DBB2C0B283422CBFEF
:103570003F3000F1FF30C01A704700BFCFA2FF1FDD
:10358000D4A2FF1F054B1878054B1B78C0B2DBB2E5
:10359000984238BF4030C01A704700BFCEA2FF1F0C
:1035A0004DA2FF1F10B5104B10491A780B78D2B2FC
:1035B000DBB29A4214D00133402B28BF00230C48C1
:1035C000DCB2C05C0C700B490968C0B251B19A42C0
:1035D00038BF4032D31A1A2B04DC00230B7010BD05
:1035E0004FF0FF3010BD00BFCEA2FF1F4DA2FF1F46
:1035F0008EA2FF1F48A2FF1F084B1A78084B1B78AA
:10360000DBB29A4207D00133402B28BF0023054A82
:10361000D05CC0B270474FF0FF307047CEA2FF1FA2
:103620004DA2FF1F8EA2FF1F0C4B1B685B0514D51C
:103630000B4BDA7802F0CB02DA7040225A74DA7857
:1036400042F03402DA70074B1A78074BD2B21A7084
:10365000064B1B680BB100221A707047348004407F
:1036600000A006404DA2FF1FCEA2FF1F48A2FF1FD1
:1036700030B5374B1A7912F0300F31D072B69A7DCF
:1036800002F0FF0022B9DA7940225A7462B627E0CC
:1036900062B6304A304913780978DBB2C9B21446B1
:1036A0002B4AD5795A1C402A28BF00228A42EDB203
:1036B00002D02A4B9D541346421E12F0FF00EFD158
:1036C000DAB22270264A126852B18B4236BFC1F17B
:1036D0004001C1EB03035B18272BC4BF0123137008
:1036E0001B4BD978C9B20C0620D51B7918061DD5FD
:1036F0001C4B1D4A1D781378EDB2DBB21046AB426D
:103700000CD0134A0133402B1479184C28BF0023E6
:10371000E45CE4B2D471127D072AF0D9DBB2037005
:103720000B4B1A79120644BF7C22DA704B060ED579
:10373000074B1A7912F0400F194608D00C4B0022A3
:103740001A700C4B1B6803B11A703C23CB7030BD50
:1037500000A00640CEA2FF1F4DA2FF1F8EA2FF1F9A
:1037600048A2FF1FD4A2FF1FCFA2FF1F4EA2FF1F20
:103770004CA2FF1FD0A2FF1F194B1A6842F400622F
:103780001A60184A00231370174A1370174A1370EF
:10379000174A1370174A1370174B40F213321A600E
:1037A0004FF451725A60154BC0F344321A70C0F393
:1037B00047125A7000F01F000422022198729A707A
:1037C000D9745A7588221A743C22DA700C4B402244
:1037D0001A70A3F22B334FF400421A60704700BFF7
:1037E0003480044046A3FF1FDDA2FF1F4CA3FF1F30
:1037F00047A3FF1FDCA2FF1F0CB0044000B006402F
:103800002FE400E0134A937800F0030103F0EC0387
:103810000B43410748BF43F01003937000F00F03C0
:10382000042B0C4903D18B7943F040038B715379FE
:10383000C20603F0EF03074A48BF43F01003537179
:103840009379810603F0EF0348BF43F010039371AF
:10385000704700BF00B0064008B5114B1B681B0540
:1038600000D408BD0F4B1A7802F0FF0312B1FFF726
:1038700069F9F7E70C4A4FF4004111600B4A0C4913
:10388000D37040F203120A604A600A4A13700A4A6F
:1038900013700A4B1B680BB101221A7008BD00BFE0
:1038A00034800440DCA2FF1F84E100E000B0064049
:1038B0000CB0044046A3FF1FDDA2FF1FD8A2FF1FCC
:1038C00038B50446094B1B7803F0FF05002BF9D1EE
:1038D00020460121FEF78EFF20462946FEF76AFFAB
:1038E000034B53F83420034B1A6038BDDCA2FF1F92
:1038F0007C67000048A3FF1F0D4A38B5146814F414
:1039000000624FF0000410D021280A4D0AD80A4A5C
:10391000012152F830302B60FEF76CFF2B681C70D1
:10392000012038BD2C60204638BD104638BD00BF90
:1039300034800440D8A2FF1F7C6700000B4B1B683B
:1039400013F4006310D01728094B09D1094A40F23B
:10395000023111605A7B42F001025A730120704714
:103960005A7B02F0FE025A730020704734800440F4
:1039700000B0064008B00440F8B51D4B1B681A059E
:10398000064633D51B4B1B680BB101221A701A4B2C
:103990001C780134282C1F4628BF0024174D2B7893
:1039A000A34218D1FEF7D2FC40280FDC144A137949
:1039B0001B06F3D52B7813490133282B28BF00238E
:1039C000C95CDBB2C9B2D1712B70E7E7FF28E5DD36
:1039D000FFF7B8F8E2E70B4BF6B21E550A4B01228F
:1039E0001A70074BE4B2BC223C70DA70F8BD00BF1D
:1039F0003480044048A3FF1F4CA3FF1F47A3FF1FB1
:103A000000B00640DEA2FF1FDCA2FF1F274B1B6891
:103A10001A052DE9F04707468A4644D5244B1B6812
:103A20000BB101221A703D4607EB0A039D4237D2C3
:103A3000DFF890801F4E98F8004096F8009001340F
:103A4000282C28BF00245FFA89F9A1451DD11A4B03
:103A5000BC22DA70FEF77AFC40280FDC164A137994
:103A60001B060FD5337815490133282B28BF0023B7
:103A7000C95CDBB2C9B2D171337003E0FF2801DD4C
:103A8000FFF760F833784B45E4D00C4B15F8012B69
:103A90001A550B4B0122E4B21A7088F80040C3E7B4
:103AA000054BBC22DA70BDE8F08700BF34800440CB
:103AB00048A3FF1F47A3FF1F00B00640DEA2FF1F61
:103AC000DCA2FF1F4CA3FF1F08B5034B1B7813B1EB
:103AD000FFF738F8F9E708BDDCA2FF1F064A074BDD
:103AE0001B781078DBB2C0B283422CBF273000F1C4
:103AF000FF30C01A704700BF47A3FF1F4CA3FF1F32
:103B0000054B1878054B1B78C0B2DBB2984238BF22
:103B10004030C01A704700BF46A3FF1FDDA2FF1F41
:103B200010B5104B10491A780B78D2B2DBB29A421A
:103B300014D00133402B28BF00230C48DCB2C05CFA
:103B40000C700B490968C0B251B19A4238BF40327B
:103B5000D31A1A2B04DC00230B7010BD4FF0FF307A
:103B600010BD00BF46A3FF1FDDA2FF1F06A3FF1F5E
:103B7000D8A2FF1F084B1A78084B1B78DBB29A4279
:103B800007D00133402B28BF0023054AD05CC0B2C8
:103B900070474FF0FF30704746A3FF1FDDA2FF1FA5
:103BA00006A3FF1F0C4B1B681B0514D50B4BDA78C3
:103BB00002F0CB02DA7040225A74DA7842F0340212
:103BC000DA70074B1A78074BD2B21A70064B1B6893
:103BD0000BB100221A7070473480044000B00640D8
:103BE000DDA2FF1F46A3FF1FD8A2FF1F30B5374B32
:103BF0001A7912F0300F31D072B69A7D02F0FF00C0
:103C000022B9DA7940225A7462B627E062B6304AA5
:103C1000304913780978DBB2C9B214462B4AD579FA
:103C20005A1C402A28BF00228A42EDB202D02A4BF9
:103C30009D541346421E12F0FF00EFD1DAB22270FB
:103C4000264A126852B18B4236BFC1F14001C1EB26
:103C500003035B18272BC4BF012313701B4BD978B8
:103C6000C9B20C0620D51B7918061DD51C4B1D4A60
:103C70001D781378EDB2DBB21046AB420CD0134A7C
:103C80000133282B1479184C28BF0023E45CE4B2DC
:103C9000D471127D072AF0D9DBB203700B4B1A796D
:103CA000120644BF7C22DA704B060ED5074B1A79F8
:103CB00012F0400F194608D00C4B00221A700C4B22
:103CC0001B6803B11A703C23CB7030BD00B00640B6
:103CD00046A3FF1FDDA2FF1F06A3FF1FD8A2FF1FE1
:103CE0004CA3FF1F47A3FF1FDEA2FF1FDCA2FF1F85
:103CF00048A3FF1F174B1A6842F480521A60164AF5
:103D000000231370154A1370154A1370154A137067
:103D1000154A1370154A40F2133111604FF4517176
:103D20005160134AC0F344311170C0F3471100F0E1
:103D30001F0051709072937013742C23D3700D4B2D
:103D400040226FF44B711A700B444FF400321A602A
:103D5000704700BF34800440BEA3FF1F55A3FF1F60
:103D6000C4A3FF1FBFA3FF1F54A3FF1F08C004402D
:103D700000C0064031E400E0134A937800F00301EC
:103D800003F0EC030B43410748BF43F0100393706B
:103D900000F00F03042B0C4903D18B7943F040034F
:103DA0008B715379C20603F0EF03074A48BF43F013
:103DB000100353719379810603F0EF0348BF43F07A
:103DC00010039371704700BF00C0064008B5114B47
:103DD0001B68DB0400D408BD0F4B1A7802F0FF0308
:103DE00012B1FEF7AFFEF7E70C4A4FF40031116055
:103DF0000B4A0C49D37040F203120A604A600A4A27
:103E000013700A4A13700A4B1B680BB101221A7017
:103E100008BD00BF3480044054A3FF1F84E100E0CC
:103E200000C0064008C00440BEA3FF1F55A3FF1FEB
:103E300050A3FF1F38B50446094B1B7803F0FF055C
:103E4000002BF9D120460121FEF7D4FC204629465B
:103E5000FEF7B0FC034B53F83420034B1A6038BD17
:103E600054A3FF1F7C670000C0A3FF1F0D4A38B595
:103E7000146814F480524FF0000410D021280A4D29
:103E80000AD80A4A012152F830302B60FEF7B2FC02
:103E90002B681C70012038BD2C60204638BD1046B0
:103EA00038BD00BF3480044050A3FF1F7C67000072
:103EB0000B4B1B6813F4805310D00E28094B09D10B
:103EC000094A40F2023111605A7B42F001025A73F2
:103ED000012070475A7B02F0FE025A73002070479F
:103EE0003480044000C0064004C00440F8B51D4BB7
:103EF0001B68DA04064633D51B4B1B680BB1012245
:103F00001A701A4B1C780134282C1F4628BF002435
:103F1000174D2B78A34218D1FEF718FA40280FDC72
:103F2000144A13791B06F3D52B7813490133282B38
:103F300028BF0023C95CDBB2C9B2D1712B70E7E79F
:103F4000FF28E5DDFEF7FEFDE2E70B4BF6B21E555E
:103F50000A4B01221A70074BE4B2AC223C70DA70B3
:103F6000F8BD00BF34800440C0A3FF1FC4A3FF1FDF
:103F7000BFA3FF1F00C0064056A3FF1F54A3FF1F8F
:103F800038B504464518AC4204D014F8010BFFF7CD
:103F9000ADFFF8E738BDFFFF08B5034B1B7813B141
:103FA000FEF7D0FDF9E708BD54A3FF1F064A074BF3
:103FB0001B781078DBB2C0B283422CBF273000F1EF
:103FC000FF30C01A704700BFBFA3FF1FC4A3FF1F6D
:103FD000054B1878054B1B78C0B2DBB2984238BF4E
:103FE0004030C01A704700BFBEA3FF1F55A3FF1F7C
:103FF00010B5104B10491A780B78D2B2DBB29A4246
:1040000014D00133402B28BF00230C48DCB2C05C25
:104010000C700B490968C0B251B19A4238BF4032A6
:10402000D31A1A2B04DC00230B7010BD4FF0FF30A5
:1040300010BD00BFBEA3FF1F55A3FF1F7EA3FF1F20
:1040400050A3FF1F084B1A78084B1B78DBB29A422B
:1040500007D00133402B28BF0023054AD05CC0B2F3
:1040600070474FF0FF307047BEA3FF1F55A3FF1FDF
:104070007EA3FF1F054B1A78054BD2B21A70054B71
:104080001B680BB100221A70704700BF55A3FF1FB9
:10409000BEA3FF1F50A3FF1F10B5294B1A7992062C
:1040A00020D5284AD879137827490133402B09783D
:1040B00028BF00238B42C0B203D02449C854D9B2D0
:1040C0001170234A116869B1224A1278D2B2934220
:1040D00036BFC2F14002C2EB03039B18272BC4BFBB
:1040E00001230B70164AD178C9B20C0616D5137984
:1040F000180613D5184B17481C780378DBB29C427E
:1041000002D16C23D37009E00133282B28BF002390
:10411000124CE45CDBB2E4B2D47103704B060ED5F2
:10412000074B1A7912F0400F194608D00C4B0022A9
:104130001A700C4B1B6803B11A702C23CB7010BD86
:1041400000C00640BEA3FF1F55A3FF1F7EA3FF1F95
:1041500050A3FF1FBFA3FF1FC4A3FF1F56A3FF1F32
:1041600054A3FF1FC0A3FF1FF0B50C4B0C4C1A78D3
:1041700042F0020504EBC50682F0010270600948B6
:104180001A700678002E0CBF8827C82786F0010613
:1041900047EA0141067044F83510F0BD30A4FF1F16
:1041A0000080FF1FA8A4FF1F431E032B10B510D8CB
:1041B00072B6094A52F8230048B1416842F8231008
:1041C000064A018832F81340611A22F8131062B6C9
:1041D00010BD002010BD00BF20A4FF1FF0A4FF1FD2
:1041E000013803280AD872B6054B53F82030002056
:1041F00013B101305B68FBE762B67047002070477F
:1042000074A4FF1F10B572B60123174A1A4412F89E
:10421000012C12071CD59900144A52F831402CB9D0
:1042200002EB431308305860114B09E041F00101E3
:1042300052F8314064B902EBC103083058600D4BAD
:1042400042F831300C4B1A78013A1A7062B610BD40
:104250000133052BD9D162B6074B00221A70BDE895
:10426000104000F013BD00BFBA6900000080FF1FBE
:1042700088004000C80040009EA4FF1F431E032B7F
:1042800030B532D8194A400140F01000104472B6DF
:10429000174CE25C032A09D8DFE802F01602180581
:1042A0000830022213E00830042210E01148124ABC
:1042B00050F8234014B940F8231002E052F82300CC
:1042C000416042F823100FE0032200E00522E2548F
:1042D00010F0080F01F108030A8843600CBF88231F
:1042E000C82343EA0243036062B630BD0080FF1F6B
:1042F000DCA3FF1F74A4FF1F84A4FF1F2DE9F84F48
:10430000AB4F3C78E4B214F0040F3D4619D0A94BF2
:104310001B78A3B1A84A117801F0FF0321B1013B3A
:10432000DBB2137003B900BEA44A117801F0FF0399
:1043300029B1013BDBB213700BB900F047FC042339
:104340003B7004F0080303F0FF02002B00F06782CB
:104350009B4B9C4C1A78D2B215094FEA920840F058
:10436000E48104EBC803596854F83830C3F383037D
:10437000013B0C2B00F2D681DFE813F0950195018B
:10438000D401D401D401D401D401D401B001D401A9
:10439000D401D4010D008C4D0A684B688B486B60CA
:1043A00001218B4B44F838302A60DFF850820170CD
:1043B00092B240F2816000238242C8F8003023614B
:1043C000A36117D8B2F5D06F80F01E81B2F5817F5E
:1043D00000F0CF8006D8802A00F0BA80822A00F050
:1043E000BB8031E140F202339A4200F0D180B2F555
:1043F000A06F1CE042F22100824200F051810ED8F1
:10440000B2F5086F00F09E80B2F5106F40F01C818D
:10441000684B6C4EAA781A7006F180090AE042F2E5
:1044200021218A4200F0088142F221339A4200F0B1
:104430000F8109E1336A1B0603D5706A083800F062
:1044400025FC08364E45F5D10026B146DFF8B0A16F
:1044500056F80A0028B1D0F804B000F017FC58460E
:10446000F8E74AF806005B4BDFF898A1F05056F8E1
:104470000A0028B1D0F804B000F008FC5846F8E76C
:10448000554B4AF80600F050544B23F81900544B92
:1044900019F80320023A032A08D8DFE802F00204E0
:1044A0000204002200E0012203F8092009F10109B9
:1044B000B9F1040F06F10406C8D14A4B00221A7064
:1044C00001269A46484A494B3244334412F8012C9B
:1044D0009B0012F0080F1A704FEA860925D000F0F1
:1044E000B7FB38B104EB461308305860404B44F832
:1044F000393006E09AF8003044F8390001338AF880
:10450000003000F0A5FB49F0010338B104EBC30211
:10451000083050602E4A44F8332006E044F8330057
:104520009AF8003001338AF8003049F0020201366F
:1045300049F003090023052E44F8323044F839309D
:10454000C0D186E01B4B2B4C1B7823700B4683E0BD
:10455000284C237063707EE0AA88042A74D8254C06
:10456000920023706370244B9B5C9E0773D521706F
:1045700071E0AA8802F07F02042A65DC6B88002BB8
:1045800062D191001C4A0A44117821F0020159E0DD
:10459000AA8802F07F02042A56DC6B88002B53D1D4
:1045A0009100154A0A44117841F002014AE000BF27
:1045B00080200740A7A4FF1F31A4FF1FA9A4FF1F4D
:1045C000902007400080FF1F94A4FF1FA8A4FF1F96
:1045D000C8004000CCA3FF1F84A4FF1FF0A4FF1F4E
:1045E000DCA3FF1F9EA4FF1FBA69000030C80110A2
:1045F000880040009FA4FF1FC0200740C8A3FF1FE2
:1046000020A4FF1F74A4FF1F6A88A9889F4B53F83A
:10461000084CA3F10C00BCB133F80C6C964209D1E4
:1046200033F80A6C8E4205D1120A032A0CBF237894
:10463000038911E00C33EAE7954A1168954A116045
:10464000A978954A117004E0944B0F221A7027E064
:1046500000231C4600E00223EE88B34238BF1E460A
:10466000402E34BF3546402520462946FFF77CFDC5
:10467000761B2C4403D1402D12D1354603E0402E49
:1046800034BF3546402520462946FFF76DFD761B91
:104690002C4401D1402D03D1814AC8F80040168036
:1046A0000122804B3DE0804B1A8842F221039A425E
:1046B00010D100237D4AC85C98540133072BF9D1EF
:1046C0001368862B02D17A4B0F221A700020014604
:1046D000FFF74AFD774B44F8383023E0764E3568D3
:1046E000B5B1DFF8BC81B8F80090B9F1400F34BF24
:1046F0004C46402428462146FFF736FDC4EB09030B
:104700009BB2A8F800300BB9402C00D12B193360B4
:10471000654B1A88B2F5A06F04D100225A709A78BE
:10472000664B1A7001225F4B6CE004EBC806013D3A
:10473000736802F00802A3F10800EDB202F0FF0175
:10474000002A36D000F0A2FA5D485E4B50F82520D2
:10475000EAB1516840F8251002F108017160595D15
:1047600003290BD8DFE801F002040608032104E066
:10477000022102E0052100E00421595516F0080F3E
:1047800012880CBF8823C82343EA024342E05A5DE3
:10479000032A07D8DFE802F040400204002206E0C6
:1047A000012204E016F0080F0CBF022203225A5522
:1047B00032E054F83820120C23F8082C22B3DFF82A
:1047C00034E123F8061C43F8041C5EF825303E490A
:1047D00013B94EF8250002E051F8253058603B4BE4
:1047E00041F8250033F815100A4423F8152000F08D
:1047F0002FFA10B10830706006E0354B44F83800ED
:104800001A7801321A7007E02A4B324A16F0080F64
:1048100008BF134644F8383008233B7070E5E007C2
:104820001FD520492B482C4C02230B702B4B1A70A0
:104830002B4B186098602B48D8601A619A615C60B5
:10484000164B0D2018702848FF2303702B7002743C
:10485000264A1370264B9F221A7001230B70BDE865
:10486000F88F210604D50D4B0D221A7080232B7072
:10487000A20705D51C4B1A78D2B21A7002232B70EE
:10488000E30644BF10232B70BDE8F88FCC6900000D
:10489000FCA1FF1F00A5FF1FB8A4FF1FC0200740F9
:1048A0009CA4FF1F9420074094A4FF1FF8A4FF1F9F
:1048B00031A4FF1FC8004000C8A3FF1F9820074075
:1048C00074A4FF1FDCA3FF1FCCA3FF1FF0A4FF1FD6
:1048D0009EA4FF1F88004000E0A3FF1F30A4FF1F1D
:1048E0000080FF1F34A4FF1F882007408C20074052
:1048F0008420074020A4FF1F08B500F03DF80022E7
:104900001A4B0021D15098180832882A4160F7D1FB
:10491000174A106840F48020106002F5283268328F
:10492000C3F307201070C3F307401B0E10751376F6
:10493000FF2302F81C3C02F8143C02F88C3C0123D3
:1049400002F8083C82F8641002F8183C094B702207
:104950006FF450711A700B444FF400721A6003F137
:10496000C04303F5C82310221A7008BD0080FF1F42
:104970003480044049E400E01FB572B6154B702244
:104980001A70154A412111700F2102F8011C802272
:104990001A701A781206FCD5104B186862B6104BC4
:1049A000984298BF0A2301AC98BF584321460A2277
:1049B00000F030F90023E15C0A4A29B102EB430020
:1049C00001330A2B4180F6D101335B00137004B030
:1049D00010BD00BF00000240070002400800024076
:1049E0007F969800FC87FF1F10B5104C23686BB1B1
:1049F00020684288531C0244147A0288934212D3DE
:104A000000F044F9094B00221A600DE0084B1B78B6
:104A100013B94FF0FF3010BD0320FFF7C5FB206036
:104A20000028E5D1F5E74380204610BDB4A4FF1F60
:104A3000A7A4FF1F10B50B4C236813B123686BB9F3
:104A400002E0094B1B7813B94FF0FF3010BD032073
:104A5000FFF7AAFB20600028F0D1F5E75A8813443D
:104A6000187A10BDB4A4FF1FA7A4FF1F044B988899
:104A7000044B1B681BB11A885B88D31A1844704713
:104A8000F0A4FF1FB4A4FF1F2DE9F8432D4E01230E
:104A900007460C463370002C4FD02B4D2B68A9468F
:104AA0002BBB4AF2F928294B1B7803F0FF020BB904
:104AB000327015E00420FFF793FB072808D8012384
:104AC000337000F0C5F8C9F8000080B91D4B1870AC
:104AD000B8F101081E4B01D01A782AB101221A70D0
:104AE0004FF0FF30BDE8F883FEF72CF8DBE72968CC
:104AF000174A488800231370C0F14002944238BF1F
:104B0000224600F1080C10448C444880A41A9342B9
:104B100004D0F85C0CF803000133F8E71F444B881D
:104B20003F2B06D940230B800420FFF7A7FB00236F
:104B30002B60084B05221A70ADE734702046BDE8A3
:104B4000F88300BFAAA4FF1FACA4FF1FA7A4FF1FE8
:104B5000B0A4FF1FA9A4FF1F07B502AB012103F8F2
:104B6000010D1846FFF790FF03B05DF804FBFFFF4F
:104B70002DE9F041114B1B78F3B1114E114B346804
:104B8000114D01271F7098464CB1002763882F7084
:104B9000042023802146FFF771FB376009E000F015
:104BA00057F8014620B104202C70FFF767FB00E0A6
:104BB0002F70002388F80030BDE8F081A7A4FF1F04
:104BC000ACA4FF1FAAA4FF1FA9A4FF1F38B50E4B5A
:104BD0001B7803F0FF05ABB90C4C216831B14B8851
:104BE0000B800420FFF74AFB256038BD00F030F849
:104BF000014620B10420BDE83840FFF73FBB044B1D
:104C000001221A7038BD00BFAAA4FF1FACA4FF1F69
:104C1000A9A4FF1F10B50023B0FBF2F402FB14009F
:104C2000092894BF30303730C0B2C85420460CB188
:104C30000133F1E7CA18547022469A4206DA885CBA
:104C4000CC5C8C54C8540132013BF6E7084610BDD9
:104C500072B60C4A1168B1FA81F30B2B02D962B615
:104C6000002070474FF00040D84021EA0001116059
:104C700062B6054948225343C8180022CA50426010
:104C8000704700BF1488FF1F0084FF1F0C4B482291
:104C9000C31AB3FBF2F30B2B11D80A4A127822B1D4
:104CA000094A12780AB1FFF7ADBA72B6074A4FF057
:104CB000004121FA03F311681943116062B670478D
:104CC0000084FF1F9EA4FF1FA7A4FF1F1488FF1FBF
:104CD00081F0004102E000BF83F0004330B54FEAAD
:104CE00041044FEA430594EA050F08BF90EA020F1A
:104CF0001FBF54EA000C55EA020C7FEA645C7FEAAD
:104D0000655C00F0E2804FEA5454D4EB5555B8BFCF
:104D10006D420CDD2C4480EA020281EA030382EA40
:104D2000000083EA010180EA020281EA0303362DD2
:104D300088BF30BD11F0004F4FEA01314FF4801CA5
:104D40004CEA113102D0404261EB410113F0004FB7
:104D50004FEA03334CEA133302D0524263EB43036E
:104D600094EA050F00F0A780A4F10104D5F1200E0C
:104D70000DDB02FA0EFC22FA05F2801841F1000167
:104D800003FA0EF2801843FA05F359410EE0A5F13B
:104D900020050EF1200E012A03FA0EFC28BF4CF06C
:104DA000020C43FA05F3C01851EBE37101F0004522
:104DB00007D54FF0000EDCF1000C7EEB00006EEB2F
:104DC0000101B1F5801F1BD3B1F5001F0CD34908B9
:104DD0005FEA30004FEA3C0C04F101044FEA445210
:104DE00012F5800F80F09A80BCF1004F08BF5FEA97
:104DF000500C50F1000041EB045141EA050130BD77
:104E00005FEA4C0C404141EB010111F4801FA4F119
:104E10000104E9D191F0000F04BF01460020B1FA6E
:104E200081F308BF2033A3F10B03B3F120020CDAA6
:104E30000C3208DD02F1140CC2F10C0201FA0CF084
:104E400021FA02F10CE002F11402D8BFC2F1200CE9
:104E500001FA02F120FA0CFCDCBF41EA0C0190409F
:104E6000E41AA2BF01EB0451294330BD6FEA0404E8
:104E70001F3C1CDA0C340EDC04F11404C4F12002D3
:104E800020FA04F001FA02F340EA030021FA04F3E5
:104E900045EA030130BDC4F10C04C4F1200220FA3C
:104EA00002F001FA04F340EA0300294630BD21FA7A
:104EB00004F0294630BD94F0000F83F4801306BF40
:104EC00081F480110134013D4EE77FEA645C18BF34
:104ED0007FEA655C29D094EA050F08BF90EA020FCB
:104EE00005D054EA000C04BF1946104630BD91EAC3
:104EF000030F1EBF0021002030BD5FEA545C05D1C6
:104F00004000494128BF41F0004130BD14F5800404
:104F10003CBF01F5801130BD01F0004545F0FE4178
:104F200041F470014FF0000030BD7FEA645C1ABFAD
:104F3000194610467FEA655C1CBF0B46024650EAE4
:104F4000013406BF52EA033591EA030F41F4002110
:104F500030BD00BF90F0000F04BF0021704730B596
:104F60004FF4806404F132044FF000054FF000016B
:104F700050E700BF90F0000F04BF0021704730B52C
:104F80004FF4806404F1320410F0004548BF404201
:104F90004FF000013EE700BF42004FEAE2014FEA56
:104FA00031014FEA02701FBF12F07F4393F07F4F31
:104FB00081F06051704792F0000F14BF93F07F4F63
:104FC000704730B54FF4607401F0004521F00041A6
:104FD00020E700BF50EA010208BF704730B54FF02C
:104FE00000050AE050EA010208BF704730B511F031
:104FF000004502D5404261EB41014FF4806404F169
:1050000032045FEA915C3FF4DCAE4FF003025FEAEA
:10501000DC0C18BF03325FEADC0C18BF033202EB72
:10502000DC02C2F1200300FA03FC20FA02F001FACC
:1050300003FE40EA0E0021FA02F11444C1E600BF6B
:1050400070B54FF0FF0C4CF4E06C1CEA11541DBF1E
:105050001CEA135594EA0C0F95EA0C0F00F0DEF8E9
:105060002C4481EA030621EA4C5123EA4C5350EACE
:10507000013518BF52EA033541F4801143F480131F
:1050800038D0A0FB02CE4FF00005E1FB02E506F0B0
:105090000042E0FB03E54FF00006E1FB03569CF005
:1050A000000F18BF4EF0010EA4F1FF04B6F5007F0B
:1050B00064F5407404D25FEA4E0E6D4146EB06067D
:1050C00042EAC62141EA55514FEAC52040EA5E5006
:1050D0004FEACE2EB4F1FD0C88BFBCF5E06F1ED8B0
:1050E000BEF1004F08BF5FEA500E50F1000041EBE7
:1050F000045170BD06F0004646EA010140EA020094
:1051000081EA0301B4EB5C04C2BFD4EB0C0541EAB5
:10511000045170BD41F480114FF0000E013C00F3CA
:10512000AB8014F1360FDEBF002001F0004170BDEE
:10513000C4F10004203C35DA0C341BDC04F1140407
:10514000C4F1200500FA05F320FA04F001FA05F293
:1051500040EA020001F0004221F0004110EBD37060
:1051600021FA04F642EB06015EEA430E08BF20EA8C
:10517000D37070BDC4F10C04C4F1200500FA04F32F
:1051800020FA05F001FA04F240EA020001F00041C1
:1051900010EBD37041F100015EEA430E08BF20EA34
:1051A000D37070BDC4F1200500FA05F24EEA020E7C
:1051B00020FA04F301FA05F243EA020321FA04F0AB
:1051C00001F0004121FA04F220EA020000EBD37062
:1051D0005EEA430E08BF20EAD37070BD94F0000F62
:1051E0000FD101F00046400041EB010111F4801F96
:1051F00008BF013CF7D041EA060195F0000F18BF47
:10520000704703F00046520043EB030313F4801F82
:1052100008BF013DF7D043EA0603704794EA0C0F3C
:105220000CEA135518BF95EA0C0F0CD050EA410652
:1052300018BF52EA4306D1D181EA030101F00041CF
:105240004FF0000070BD50EA410606BF10461946F7
:1052500052EA430619D094EA0C0F02D150EA013603
:1052600013D195EA0C0F05D152EA03361CBF104644
:1052700019460AD181EA030101F0004141F0FE41E3
:1052800041F470014FF0000070BD41F0FE4141F467
:10529000780170BD70B54FF0FF0C4CF4E06C1CEA67
:1052A00011541DBF1CEA135594EA0C0F95EA0C0F1C
:1052B00000F0A7F8A4EB050481EA030E52EA0335D7
:1052C0004FEA013100F088804FEA03334FF08055F8
:1052D00045EA131343EA12634FEA022245EA111525
:1052E00045EA10654FEA00260EF000419D4208BFD6
:1052F000964244F1FD0404F5407402D25B084FEA83
:105300003202B61A65EB03055B084FEA32024FF42E
:1053100080104FF4002CB6EB020E75EB030E22BF8B
:10532000B61A754640EA0C005B084FEA3202B6EB4B
:10533000020E75EB030E22BFB61A754640EA5C00FA
:105340005B084FEA3202B6EB020E75EB030E22BF8A
:10535000B61A754640EA9C005B084FEA3202B6EB8B
:10536000020E75EB030E22BFB61A754640EADC004A
:1053700055EA060E18D04FEA051545EA16754FEAAC
:1053800006164FEAC30343EA52734FEAC2025FEACA
:105390001C1CC0D111F4801F0BD141EA00014FF059
:1053A00000004FF0004CB6E711F4801F04BF01432A
:1053B0000020B4F1FD0C88BFBCF5E06F3FF6AFAE46
:1053C000B5EB030C04BFB6EB020C5FEA500C50F1D6
:1053D000000041EB045170BD0EF0004E4EEA113159
:1053E00014EB5C04C2BFD4EB0C0541EA045170BD60
:1053F00041F480114FF0000E013C90E645EA060EA4
:105400008DE60CEA135594EA0C0F08BF95EA0C0FD1
:105410003FF43BAF94EA0C0F0AD150EA01347FF419
:1054200034AF95EA0C0F7FF425AF104619462CE7F0
:1054300095EA0C0F06D152EA03353FF4FDAE104653
:10544000194622E750EA410618BF52EA43067FF4A4
:10545000C5AE50EA41047FF40DAF52EA43057FF434
:10546000EBAE12E74FF0FF3C06E000BF4FF0010C3F
:1054700002E000BF4FF0010C4DF804CD4FEA410CA3
:105480007FEA6C5C4FEA430C18BF7FEA6C5C1BD070
:1054900001B050EA410C0CBF52EA430C91EA030FF1
:1054A00002BF90EA020F0020704710F1000F91EA4E
:1054B000030F58BF994208BF90422CBFD8176FEA1C
:1054C000E37040F0010070474FEA410C7FEA6C5CEA
:1054D00002D150EA013C07D14FEA430C7FEA6C5CF1
:1054E000D6D152EA033CD3D05DF8040B704700BF1D
:1054F0008446104662468C461946634600E000BF6B
:1055000001B5FFF7B7FF002848BF10F1000F01BD3C
:105510004DF808EDFFF7F4FF0CBF012000205DF807
:1055200008FB00BF4DF808EDFFF7EAFF34BF01208C
:1055300000205DF808FB00BF4DF808EDFFF7E0FF25
:1055400094BF012000205DF808FB00BF4DF808ED76
:10555000FFF7CEFF94BF012000205DF808FB00BFDD
:105560004DF808EDFFF7C4FF34BF012000205DF8BF
:1055700008FB00BF4A0011D212F5001211D20DD55E
:105580006FF47873B3EB62520ED44FEAC12343F049
:10559000004343EA505323FA02F070474FF00000F3
:1055A000704750EA013002D14FF0FF3070474FF0A2
:1055B0000000704780F0004002E000BF81F0004131
:1055C00042001FBF5FEA410392EA030F7FEA226CA9
:1055D0007FEA236C6AD04FEA1262D2EB1363C1BF39
:1055E000D218414048404140B8BF5B42192B88BFA8
:1055F000704710F0004F40F4000020F07F4018BFCB
:10560000404211F0004F41F4000121F07F4118BFEA
:10561000494292EA030F3FD0A2F1010241FA03FC92
:1056200010EB0C00C3F1200301FA03F100F000437A
:1056300002D5494260EB4000B0F5000F13D3B0F142
:10564000807F06D340084FEA310102F10102FE2AB1
:1056500051D2B1F1004F40EBC25008BF20F0010021
:1056600040EA03007047490040EB000010F4000FCF
:10567000A2F10102EDD1B0FA80FCACF1080CB2EB62
:105680000C0200FA0CF0AABF00EBC25052421843C1
:10569000BCBFD0401843704792F0000F81F4000166
:1056A00006BF80F400000132013BB5E74FEA410339
:1056B0007FEA226C18BF7FEA236C21D092EA030FA5
:1056C00004D092F0000F08BF0846704790EA010F1F
:1056D0001CBF0020704712F07F4F04D1400028BF4C
:1056E00040F00040704712F100723CBF00F500002E
:1056F000704700F0004343F0FE4040F40000704764
:105700007FEA226216BF08467FEA2363014642020F
:1057100006BF5FEA412390EA010F40F48000704722
:105720004FF0000304E000BF10F0004348BF4042C8
:105730005FEA000C08BF704743F0964301464FF004
:1057400000001CE050EA010208BF70474FF0000360
:105750000AE000BF50EA010208BF704711F00043A1
:1057600002D5404261EB41015FEA010C02BF844671
:105770000146002043F0B64308BFA3F18053A3F5D0
:105780000003BCFA8CF2083AA3EBC25310DB01FA17
:1057900002FC634400FA02FCC2F12002BCF1004F9B
:1057A00020FA02F243EB020008BF20F0010070472C
:1057B00002F1200201FA02FCC2F1200250EA4C0080
:1057C00021FA02F243EB020008BF20EADC707047C6
:1057D0004FF0FF0C1CEAD0521EBF1CEAD15392EAD4
:1057E0000C0F93EA0C0F6FD01A4480EA010C4002B0
:1057F00018BF5FEA41211ED04FF0006343EA50100A
:1058000043EA5111A0FB01310CF00040B1F5000F4B
:105810003EBF490041EAD3715B0040EA010062F1FA
:105820007F02FD2A1DD8B3F1004F40EBC25008BFE4
:1058300020F00100704790F0000F0CF0004C08BF02
:1058400049024CEA502040EA51207F3AC2BFD2F1CF
:10585000FF0340EAC250704740F400004FF00003DD
:10586000013A5DDC12F1190FDCBF00F00040704717
:10587000C2F10002410021FA02F1C2F1200200FA55
:1058800002FC5FEA310040F1000053EA4C0308BF1C
:1058900020EADC70704792F0000F00F0004C02BF6D
:1058A000400010F4000F013AF9D040EA0C0093F0E8
:1058B000000F01F0004C02BF490011F4000F013B42
:1058C000F9D041EA0C018FE70CEAD15392EA0C0FB0
:1058D00018BF93EA0C0F0AD030F0004C18BF31F01B
:1058E000004CD8D180EA010000F00040704790F0F1
:1058F000000F17BF90F0004F084691F0000F91F095
:10590000004F14D092EA0C0F01D142020FD193EA5A
:105910000C0F03D14B0218BF084608D180EA0100E2
:1059200000F0004040F0FE4040F40000704740F0BE
:10593000FE4040F4400070474FF0FF0C1CEAD0528C
:105940001EBF1CEAD15392EA0C0F93EA0C0F69D0E8
:10595000A2EB030280EA010C49024FEA402037D053
:105960004FF0805343EA111143EA10130CF000404A
:105970008B4238BF5B0042F17D024FF4000C8B423A
:1059800024BF5B1A40EA0C00B3EB510F24BFA3EB1A
:10599000510340EA5C00B3EB910F24BFA3EB9103EA
:1059A00040EA9C00B3EBD10F24BFA3EBD10340EA44
:1059B000DC001B0118BF5FEA1C1CE0D1FD2A3FF68A
:1059C00050AF8B4240EBC25008BF20F0010070473F
:1059D0000CF0004C4CEA50207F32C2BFD2F1FF03E2
:1059E00040EAC250704740F400004FF00003013A13
:1059F00037E792F0000F00F0004C02BF400010F4B7
:105A0000000F013AF9D040EA0C0093F0000F01F0CA
:105A1000004C02BF490011F4000F013BF9D041EAEC
:105A20000C0195E70CEAD15392EA0C0F08D142021F
:105A30007FF47DAF93EA0C0F7FF470AF084676E7F2
:105A400093EA0C0F04D14B023FF44CAF08466EE7CB
:105A500030F0004C18BF31F0004CCAD130F0004299
:105A60007FF45CAF31F000437FF43CAF5FE700BFF1
:105A70004FF0FF3C06E000BF4FF0010C02E000BF1A
:105A80004FF0010C4DF804CD4FEA40024FEA4103BC
:105A90007FEA226C18BF7FEA236C11D001B052EA72
:105AA000530C18BF90EA010F58BFB2EB030088BF38
:105AB000C81738BF6FEAE17018BF40F001007047A7
:105AC0007FEA226C02D15FEA402C05D17FEA236C89
:105AD000E4D15FEA412CE1D05DF8040B704700BFD0
